{
  "_format": "hh-sol-artifact-1",
  "contractName": "AnimePortal",
  "sourceName": "contracts/WavePortal.sol",
  "abi": [
    {
      "inputs": [],
      "stateMutability": "payable",
      "type": "constructor"
    },
    {
      "anonymous": false,
      "inputs": [
        {
          "indexed": true,
          "internalType": "address",
          "name": "from",
          "type": "address"
        },
        {
          "indexed": false,
          "internalType": "uint256",
          "name": "timestamp",
          "type": "uint256"
        },
        {
          "indexed": false,
          "internalType": "string",
          "name": "anime",
          "type": "string"
        }
      ],
      "name": "NewAnime",
      "type": "event"
    },
    {
      "inputs": [],
      "name": "getAllAnimes",
      "outputs": [
        {
          "components": [
            {
              "internalType": "address",
              "name": "waver",
              "type": "address"
            },
            {
              "internalType": "string",
              "name": "anime",
              "type": "string"
            },
            {
              "internalType": "uint256",
              "name": "timestamp",
              "type": "uint256"
            }
          ],
          "internalType": "struct AnimePortal.Anime[]",
          "name": "",
          "type": "tuple[]"
        }
      ],
      "stateMutability": "view",
      "type": "function"
    },
    {
      "inputs": [],
      "name": "getTotalAnimes",
      "outputs": [
        {
          "internalType": "uint256",
          "name": "",
          "type": "uint256"
        }
      ],
      "stateMutability": "view",
      "type": "function"
    },
    {
      "inputs": [
        {
          "internalType": "address",
          "name": "",
          "type": "address"
        }
      ],
      "name": "lastDropedAt",
      "outputs": [
        {
          "internalType": "uint256",
          "name": "",
          "type": "uint256"
        }
      ],
      "stateMutability": "view",
      "type": "function"
    },
    {
      "inputs": [
        {
          "internalType": "string",
          "name": "_anime",
          "type": "string"
        }
      ],
      "name": "subAnime",
      "outputs": [],
      "stateMutability": "nonpayable",
      "type": "function"
    }
  ],
  "bytecode": "0x60806040526200004f6040518060400160405280601b81526020017f59657420416e6f7468657220536d61727420436f6e74726163742100000000008152506200007760201b6200062a1760201c565b606444426200005f9190620001c4565b6200006b919062000261565b60018190555062000308565b62000117816040516024016200008e919062000184565b6040516020818303038152906040527f41304fac000000000000000000000000000000000000000000000000000000007bffffffffffffffffffffffffffffffffffffffffffffffffffffffff19166020820180517bffffffffffffffffffffffffffffffffffffffffffffffffffffffff83818316178352505050506200011a60201b60201c565b50565b60008151905060006a636f6e736f6c652e6c6f679050602083016000808483855afa5050505050565b60006200015082620001a8565b6200015c8185620001b3565b93506200016e8185602086016200022b565b6200017981620002f7565b840191505092915050565b60006020820190508181036000830152620001a0818462000143565b905092915050565b600081519050919050565b600082825260208201905092915050565b6000620001d18262000221565b9150620001de8362000221565b9250827fffffffffffffffffffffffffffffffffffffffffffffffffffffffffffffffff0382111562000216576200021562000299565b5b828201905092915050565b6000819050919050565b60005b838110156200024b5780820151818401526020810190506200022e565b838111156200025b576000848401525b50505050565b60006200026e8262000221565b91506200027b8362000221565b9250826200028e576200028d620002c8565b5b828206905092915050565b7f4e487b7100000000000000000000000000000000000000000000000000000000600052601160045260246000fd5b7f4e487b7100000000000000000000000000000000000000000000000000000000600052601260045260246000fd5b6000601f19601f8301169050919050565b61110480620003186000396000f3fe608060405234801561001057600080fd5b506004361061004c5760003560e01c80631bb7d38f14610051578063227b93f01461006f578063bc4ac69d1461008d578063f2d1b3f6146100a9575b600080fd5b6100596100d9565b6040516100669190610d74565b60405180910390f35b610077610107565b6040516100849190610c70565b60405180910390f35b6100a760048036038101906100a2919061096d565b610258565b005b6100c360048036038101906100be9190610944565b610612565b6040516100d09190610d74565b60405180910390f35b60006100ff6040518060600160405280602281526020016110ad602291396000546106c3565b600054905090565b60606002805480602002602001604051908101604052809291908181526020016000905b8282101561024f57838290600052602060002090600302016040518060600160405290816000820160009054906101000a900473ffffffffffffffffffffffffffffffffffffffff1673ffffffffffffffffffffffffffffffffffffffff1673ffffffffffffffffffffffffffffffffffffffff1681526020016001820180546101b490610f65565b80601f01602080910402602001604051908101604052809291908181526020018280546101e090610f65565b801561022d5780601f106102025761010080835404028352916020019161022d565b820191906000526020600020905b81548152906001019060200180831161021057829003601f168201915b505050505081526020016002820154815250508152602001906001019061012b565b50505050905090565b42610384600360003373ffffffffffffffffffffffffffffffffffffffff1673ffffffffffffffffffffffffffffffffffffffff168152602001908152602001600020546102a69190610e91565b106102e6576040517f08c379a00000000000000000000000000000000000000000000000000000000081526004016102dd90610d54565b60405180910390fd5b42600360003373ffffffffffffffffffffffffffffffffffffffff1673ffffffffffffffffffffffffffffffffffffffff16815260200190815260200160002081905550600160008082825461033c9190610e91565b925050819055506103826040518060400160405280601f81526020017f2573206861732073656e742074686569722066617620616e696d65203a2921008152503361075f565b600260405180606001604052803373ffffffffffffffffffffffffffffffffffffffff16815260200183815260200142815250908060018154018082558091505060019003906000526020600020906003020160009091909190915060008201518160000160006101000a81548173ffffffffffffffffffffffffffffffffffffffff021916908373ffffffffffffffffffffffffffffffffffffffff1602179055506020820151816001019080519060200190610441929190610824565b506040820151816002015550506064600154424461045f9190610e91565b6104699190610e91565b6104739190610f97565b6001819055506032600154116105bf576104c26040518060400160405280600781526020017f257320776f6e21000000000000000000000000000000000000000000000000008152503361075f565b6000655af3107a4000905047811115610510576040517f08c379a000000000000000000000000000000000000000000000000000000000815260040161050790610d14565b60405180910390fd5b60003373ffffffffffffffffffffffffffffffffffffffff168260405161053690610c5b565b60006040518083038185875af1925050503d8060008114610573576040519150601f19603f3d011682016040523d82523d6000602084013e610578565b606091505b50509050806105bc576040517f08c379a00000000000000000000000000000000000000000000000000000000081526004016105b390610d34565b60405180910390fd5b50505b3373ffffffffffffffffffffffffffffffffffffffff167ff698a36754762fc3e5aefdddb9282b3dd9eb17aaf7d16d6e52ef12d2a457e3b94283604051610607929190610d8f565b60405180910390a250565b60036020528060005260406000206000915090505481565b6106c08160405160240161063e9190610c92565b6040516020818303038152906040527f41304fac000000000000000000000000000000000000000000000000000000007bffffffffffffffffffffffffffffffffffffffffffffffffffffffff19166020820180517bffffffffffffffffffffffffffffffffffffffffffffffffffffffff83818316178352505050506107fb565b50565b61075b82826040516024016106d9929190610ce4565b6040516020818303038152906040527f9710a9d0000000000000000000000000000000000000000000000000000000007bffffffffffffffffffffffffffffffffffffffffffffffffffffffff19166020820180517bffffffffffffffffffffffffffffffffffffffffffffffffffffffff83818316178352505050506107fb565b5050565b6107f78282604051602401610775929190610cb4565b6040516020818303038152906040527f319af333000000000000000000000000000000000000000000000000000000007bffffffffffffffffffffffffffffffffffffffffffffffffffffffff19166020820180517bffffffffffffffffffffffffffffffffffffffffffffffffffffffff83818316178352505050506107fb565b5050565b60008151905060006a636f6e736f6c652e6c6f679050602083016000808483855afa5050505050565b82805461083090610f65565b90600052602060002090601f0160209004810192826108525760008555610899565b82601f1061086b57805160ff1916838001178555610899565b82800160010185558215610899579182015b8281111561089857825182559160200191906001019061087d565b5b5090506108a691906108aa565b5090565b5b808211156108c35760008160009055506001016108ab565b5090565b60006108da6108d584610df0565b610dbf565b9050828152602081018484840111156108f257600080fd5b6108fd848285610f23565b509392505050565b60008135905061091481611095565b92915050565b600082601f83011261092b57600080fd5b813561093b8482602086016108c7565b91505092915050565b60006020828403121561095657600080fd5b600061096484828501610905565b91505092915050565b60006020828403121561097f57600080fd5b600082013567ffffffffffffffff81111561099957600080fd5b6109a58482850161091a565b91505092915050565b60006109ba8383610bed565b905092915050565b6109cb81610ee7565b82525050565b6109da81610ee7565b82525050565b60006109eb82610e30565b6109f58185610e53565b935083602082028501610a0785610e20565b8060005b85811015610a435784840389528151610a2485826109ae565b9450610a2f83610e46565b925060208a01995050600181019050610a0b565b50829750879550505050505092915050565b6000610a6082610e3b565b610a6a8185610e6f565b9350610a7a818560208601610f32565b610a8381611084565b840191505092915050565b6000610a9982610e3b565b610aa38185610e80565b9350610ab3818560208601610f32565b610abc81611084565b840191505092915050565b6000610ad4603483610e80565b91507f547279696e6720746f207769746864726177206d6f7265206d6f6e657920746860008301527f616e2074686520636f6e7472616374206861732e0000000000000000000000006020830152604082019050919050565b6000610b3a602783610e80565b91507f4661696c656420746f207769746864726177206d6f6e65792066726f6d20636f60008301527f6e74726163742e000000000000000000000000000000000000000000000000006020830152604082019050919050565b6000610ba0600083610e64565b9150600082019050919050565b6000610bba600883610e80565b91507f576169742031356d0000000000000000000000000000000000000000000000006000830152602082019050919050565b6000606083016000830151610c0560008601826109c2565b5060208301518482036020860152610c1d8282610a55565b9150506040830151610c326040860182610c3d565b508091505092915050565b610c4681610f19565b82525050565b610c5581610f19565b82525050565b6000610c6682610b93565b9150819050919050565b60006020820190508181036000830152610c8a81846109e0565b905092915050565b60006020820190508181036000830152610cac8184610a8e565b905092915050565b60006040820190508181036000830152610cce8185610a8e565b9050610cdd60208301846109d1565b9392505050565b60006040820190508181036000830152610cfe8185610a8e565b9050610d0d6020830184610c4c565b9392505050565b60006020820190508181036000830152610d2d81610ac7565b9050919050565b60006020820190508181036000830152610d4d81610b2d565b9050919050565b60006020820190508181036000830152610d6d81610bad565b9050919050565b6000602082019050610d896000830184610c4c565b92915050565b6000604082019050610da46000830185610c4c565b8181036020830152610db68184610a8e565b90509392505050565b6000604051905081810181811067ffffffffffffffff82111715610de657610de5611055565b5b8060405250919050565b600067ffffffffffffffff821115610e0b57610e0a611055565b5b601f19601f8301169050602081019050919050565b6000819050602082019050919050565b600081519050919050565b600081519050919050565b6000602082019050919050565b600082825260208201905092915050565b600081905092915050565b600082825260208201905092915050565b600082825260208201905092915050565b6000610e9c82610f19565b9150610ea783610f19565b9250827fffffffffffffffffffffffffffffffffffffffffffffffffffffffffffffffff03821115610edc57610edb610fc8565b5b828201905092915050565b6000610ef282610ef9565b9050919050565b600073ffffffffffffffffffffffffffffffffffffffff82169050919050565b6000819050919050565b82818337600083830152505050565b60005b83811015610f50578082015181840152602081019050610f35565b83811115610f5f576000848401525b50505050565b60006002820490506001821680610f7d57607f821691505b60208210811415610f9157610f90611026565b5b50919050565b6000610fa282610f19565b9150610fad83610f19565b925082610fbd57610fbc610ff7565b5b828206905092915050565b7f4e487b7100000000000000000000000000000000000000000000000000000000600052601160045260246000fd5b7f4e487b7100000000000000000000000000000000000000000000000000000000600052601260045260246000fd5b7f4e487b7100000000000000000000000000000000000000000000000000000000600052602260045260246000fd5b7f4e487b7100000000000000000000000000000000000000000000000000000000600052604160045260246000fd5b6000601f19601f8301169050919050565b61109e81610ee7565b81146110a957600080fd5b5056fe5765206861766520256420746f74616c20616e696d6573207375626d697474656421a264697066735822122029525b317e54817fa0086d3c86933ca74b1b6a884aa152296e1cffd1dac4a87c64736f6c63430008000033",
  "linkReferences": {},
  "deployedLinkReferences": {}
}